:100000000C9435000C945D000C945D000C945D0024
:100010000C945D000C945D000C945D000C945D00EC
:100020000C945D000C945D000C945D000C945D00DC
:100030000C945D000C945D000C945D000C945D00CC
:100040000C942B050C945D000C945D000C945D00E9
:100050000C945D000C945D000C945D000C945D00AC
:100060000C945D000C945D00D20611241FBECFEFEE
:10007000D8E0DEBFCDBF11E0A0E0B1E0E4EDFEE0EE
:1000800002C005900D92A232B107D9F721E0A2E299
:10009000B1E001C01D92AB3BB207E1F710E0C5E350
:1000A000D0E004C02197FE010E944E07C433D1075F
:1000B000C9F70E9475050C9468070C940000DB01D9
:1000C000FC0109962C91208311962C911197218384
:1000D00012962C91129722833396E817F90791F71D
:1000E00008953FB7F89480919A0190919B01A09157
:1000F0009C01B0919D0126B5A89B05C02F3F19F02A
:100100000196A11DB11D3FBFBA2FA92F982F882797
:10011000820F911DA11DB11DBC01CD0142E0660FF2
:10012000771F881F991F4A95D1F708953F924F92E4
:100130005F926F927F928F929F92AF92BF92CF9277
:10014000DF92EF92FF920F931F93CF93DF9300D034
:100150001F92CDB7DEB7F090AE018091B1019091C2
:10016000B201A091B301B091B401892B8A2B8B2BE2
:10017000E9F00E9471000091AA011091AB01209159
:10018000AC013091AD01DC01CB01801B910BA20BC6
:10019000B30B0091B1011091B2012091B3013091E4
:1001A000B40180179107A207B307B8F20E9471004B
:1001B0006093AA017093AB018093AC019093AD0161
:1001C000E091B901F091BA01309759F04091B50131
:1001D0005091B6016091B7017091B8018F2D0995CA
:1001E000F82E0091A8011091A9014F2C512C612CDF
:1001F000712C0115110509F45FC0D8011C96EC9013
:100200001C978091AF019091B0018436910510F454
:100210001C961C92D801ED91FC91A280B3801982AA
:100220001A821B82F11014C0F8014585568562813F
:1002300073819E012F5F3F4FC801F5010995D801D9
:100240001C96EC921C9714960D911C911597D1CF8A
:10025000F8013696CE0101966C01480199E0890EAD
:10026000911C2191222309F132803320F1F0822F59
:1002700090E0A0E0B0E09C01AD012F5F3F4F4F4FF9
:100280005F4FC301B2010E94E2069B01AC01832DC6
:1002900090E0A0E0B0E0BC01CD016F5F7F4F8F4FD9
:1002A0009F4F0E94E206D6018C93BFEFCB1ADB0A68
:1002B000E815F905B1F6B8CF8091A6019091A70194
:1002C0009C012F5F3F4F3093A7012093A6014997D0
:1002D0000CF447C08FB7F89400919E0110919F01D4
:1002E0002091A0013091A1018FBFE091A601F09172
:1002F000A70188EE93E0E89FB001E99F700DF89F99
:10030000700D1124072E000C880B990BC090A201D0
:10031000D090A301E090A401F090A501A90198015B
:100320002C193D094E095F090E9406073093B00160
:100330002093AF011092A7011092A6012FB7F89455
:1003400080919E0190919F01A091A001B091A10187
:100350002FBF8093A2019093A301A093A401B09317
:10036000A5010F900F900F90DF91CF911F910F91EA
:10037000FF90EF90DF90CF90BF90AF909F908F90C5
:100380007F906F905F904F903F900895CF92DF9253
:10039000EF92FF920E9471006B017C010E9471003C
:1003A000DC01CB018C199D09AE09BF09883E934041
:1003B000A105B10598F3FF90EF90DF90CF900895DD
:1003C00080E991E008950F931F93CF93DF932091DD
:1003D00023012F5F322F37703093230120FF02C09B
:1003E00020E801C020E031FD2064347009F0206273
:1003F000205FFC01EC01239600E011E06485662398
:1004000031F070E0C8010E94F2066F5F01C060E049
:100410006187322F369F030E30E0311D11243111D8
:1004200002C0168202C031503683662311F061503B
:1004300061873196CE17DF0709F7DF91CF911F91C2
:100440000F9108954F925F926F927F928F92AF9229
:10045000BF92CF92DF92EF920F931F93CF93DF93D0
:100460003C01EB010E947100F30127853089621B7A
:10047000730B6A307105B0F3F894E881F98175B1B6
:10048000726065B16D7F65B9CA848F812C2D281B80
:10049000822F2F83BF844A805B801D850C85DE847C
:1004A0001F5F0F5FD3949E813885A984EB844181BF
:1004B000D20120E0C32F522F322F3181442788945C
:1004C0003111380F08F43FEF8195889410FD430FE8
:1004D0004795889411FD430F4795889412FD430F6B
:1004E0004795889413FD430F4795889414FD430F57
:1004F0004795889415FD430F4795889416FD430F43
:100500004795889417FD430F47958894232F111121
:10051000242F8C0D422F002C75B900C047FF65B900
:1005200030812227889400C000C0002C65B93111A9
:10053000390F00C0002C75B900C046FF65B908F43A
:100540003FEF9195889400C000C0002C65B900FD74
:10055000230F00C0002C75B900C045FF65B9279571
:10056000889401FD230F00C000C0002C65B92795B9
:10057000889400C0002C75B900C044FF65B902FD25
:10058000230F2795889400C000C0002C65B903FD97
:10059000230F00C0002C75B900C043FF65B9279533
:1005A000889404FD230F00C000C0002C65B9279576
:1005B000889400C0002C75B900C042FF65B905FDE4
:1005C000230F2795889400C000C0002C65B906FD54
:1005D000230F00C0002C75B900C041FF65B92795F5
:1005E000889407FD230F00C000C0002C65B9279533
:1005F000889400C0002C75B900C040FF65B9432F36
:100600000111422F9A0D00C000C0002C65B900C036
:1006100000C0002C75B900C047FF65B932812227A0
:10062000889400C000C0002C65B931113C0F00C097
:10063000002C75B900C046FF65B908F43FEFEB0D1B
:10064000F11D00C000C0002C65B9D0FC230F00C014
:10065000002C75B900C045FF65B927958894D1FC79
:10066000230F00C000C0002C65B92795889400C0F6
:10067000002C75B900C044FF65B9D2FC230F279543
:10068000889400C000C0002C65B9D3FC230F00C0C3
:10069000002C75B900C043FF65B927958894D4FC38
:1006A000230F00C000C0002C65B92795889400C0B6
:1006B000002C75B900C042FF65B9D5FC230F279502
:1006C000889400C000C0002C65B9D6FC230F00C080
:1006D000002C75B900C041FF65B927958894D7FCF7
:1006E000230F00C000C0002C65B92795889400C076
:1006F000002C75B900C040FF65B9432FD110422FBF
:10070000C19500C000C0002C65B9CE0D00C000C06E
:1007100075B900C047FF65B931812227889400C0B0
:1007200000C0002C65B93111380F00C0002C75B91C
:1007300000C046FF65B908F43FEF8195889400C07A
:1007400000C0002C65B910FD230F00C0002C75B946
:1007500000C045FF65B92795889411FD230F00C09F
:1007600000C0002C65B92795889400C0002C75B98D
:1007700000C044FF65B912FD230F2795889400C07F
:1007800000C0002C65B913FD230F00C0002C75B903
:1007900000C043FF65B92795889414FD230F00C05E
:1007A00000C0002C65B92795889400C0002C75B94D
:1007B00000C042FF65B915FD230F2795889400C03E
:1007C00000C0002C65B916FD230F00C0002C75B9C0
:1007D00000C041FF65B92795889417FD230F00C01D
:1007E00000C0002C65B92795889400C0002C75B90D
:1007F00000C040FF65B9432F1111422F8C0D00C07E
:1008000000C0002C65B9119709F086CE20EE31E0CA
:10081000D2010E942807DC01CB01F4E0B695A79530
:1008200097958795FA95D1F720E030E0B901EAE98C
:100830004E9E040C611D5E9E600D711D1124650DA0
:10084000711D860F971FA11DB11D893E43E09407BE
:10085000A105B10508F434C0885E9340A109B1092F
:1008600042E0B695A795979587954A95D1F747E0C9
:10087000849F080E211D949F200D311D1124290FE6
:10088000311D6091220170E0860F971F820F931F28
:1008900040919E0150919F016091A0017091A10132
:1008A000292F3327420F531F611D711D40939E0155
:1008B00050939F016093A0017093A1018093220146
:1008C00078940E947100F301708B6787DF91CF915C
:1008D0001F910F91EF90DF90CF90BF90AF908F90CE
:1008E0007F906F905F904F900895219A08950F9395
:1008F0001F93CF93DF93CDB7DEB762970FB6F8940F
:10090000DEBF0FBECDBF8C01F901DC011C968C91BE
:100910007A8369835C834B835E834D8390819D875B
:1009200091819E8792819F87813029F4CE01019623
:100930000E94E30106C01C861B861A86198618864B
:100940001F8283E0888B1A8A198AD801ED91FC9165
:100950000484F585E02DBE016F5F7F4FC8010995C6
:1009600062960FB6F894DEBF0FBECDBFDF91CF9178
:100970001F910F9108950F931F93CF93DF93CDB7DE
:10098000DEB762970FB6F894DEBF0FBECDBF8C0105
:10099000F901DC011C968C917A8369835C834B831B
:1009A0005E834D8390819D8791819E8792819F87F1
:1009B000813029F4CE0101960E94E30106C01C8615
:1009C0001B861A86198618861F82188A1A8A198A1F
:1009D000D801ED91FC910484F585E02DBE016F5F97
:1009E0007F4FC801099562960FB6F894DEBF0FBE1F
:1009F000CDBFDF91CF911F910F91089580E090E0DE
:100A00000895FC01858596850895CF93DF9300D0E6
:100A100000D000D0CDB7DEB7AB011C821D821E8294
:100A2000DC01ED91FC910190F081E02D19821A8298
:100A30001B829E012F5F3F4FBE016C5F7F4F099568
:100A400026960FB6F894DEBF0FBECDBFDF91CF91D3
:100A500008950E9463071F920F920FB60F92112400
:100A60002F933F938F939F93AF93BF9380919E015A
:100A700090919F01A091A001B091A10130919901A5
:100A800023E0230F2D3720F40196A11DB11D05C0D1
:100A900026E8230F0296A11DB11D20939901809392
:100AA0009E0190939F01A093A001B093A10180911A
:100AB0009A0190919B01A0919C01B0919D0101969A
:100AC000A11DB11D80939A0190939B01A0939C015D
:100AD000B0939D01BF91AF919F918F913F912F91C5
:100AE0000F900FBE0F901F901895CF93DF9300D0FB
:100AF0001F92CDB7DEB7789484B5826084BD84B58B
:100B0000816084BD85B5826085BD85B5816085BD08
:100B100080916E00816080936E00109281008091C0
:100B20008100826080938100809181008160809348
:100B30008100809180008160809380008091B1006D
:100B400084608093B1008091B00081608093B00098
:100B500080917A00846080937A0080917A0082602C
:100B600080937A0080917A00816080937A008091EE
:100B70007A00806880937A001092C10080913701DA
:100B8000811145C010922901109228018FEF8093A6
:100B90002C0180932D0180932E0180932F0180934F
:100BA00030018093310181E0809332011092340151
:100BB0001092330110922B0110922A018091A8010A
:100BC0009091A901892B31F486E291E09093A901DB
:100BD0008093A801E0912401F0912501309721F044
:100BE00086E291E09583848386E291E090932501EB
:100BF00080932401109236011092350184E191E036
:100C0000909327018093260181E080933701219AF8
:100C10008FE391E090932901809328018EE190E089
:100C200090933401809333018091B1019091B2018E
:100C3000A091B301B091B401843C29E09207A105D1
:100C4000B10520F484EC99E0A0E0B0E08093B1011C
:100C50009093B201A093B301B093B40180E8809364
:100C6000AE01A0E08A2EA0E09A2EB7E8AB2E12E3E8
:100C7000C12E08E9B02EFEEC7F2EDD24DA9400E9C7
:100C800011E03FE3E32E31E0F32E4BEE242E5BEF39
:100C9000352E6DEC462E75E8572EEFE36E2EA982A9
:100CA0007A822B82BE016F5F7F4FC7010E945F0077
:100CB0000E9496000E94C6011982CA82CB82BE01A0
:100CC0006F5F7F4FC7010E945F000E9496000E94E5
:100CD000C601B9823A82BB82BE016F5F7F4FC701F6
:100CE0000E945F000E9496000E94C60149825A82BB
:100CF0006B82BE016F5F7F4FC7010E945F000E9441
:100D000096000E94C60183E0E80EF11C20E9E2167D
:100D100021E0F20621F680EC682E9BECE92E20E81B
:100D2000F22ED9826A82EB82BE016F5F7F4FC801CB
:100D30000E945F000E9496000E94C60119821A82DA
:100D4000FB82BE016F5F7F4FC8010E945F000E945F
:100D500096000E94C6011982DA82DB82BE016F5FB3
:100D60007F4FC8010E945F000E9496000E94C6014A
:100D70001982DA82DB82BE016F5F7F4FC8010E9459
:100D80005F000E9496000E94C6010350110981E095
:100D90000F33180731F68114910409F470CF0E94C3
:100DA000000069CFEEEAF1E08FEF808312821182BA
:100DB000148613868FEF9FEFDC0187839087A187CE
:100DC000B2870895DB018F939F930E942F07BF91F5
:100DD000AF91A29F800D911DA39F900DB29F900D8A
:100DE0001124089597FB072E16F4009407D077FD81
:100DF00009D00E943A0707FC05D03EF490958195F2
:100E00009F4F0895709561957F4F0895A1E21A2E26
:100E1000AA1BBB1BFD010DC0AA1FBB1FEE1FFF1F9E
:100E2000A217B307E407F50720F0A21BB30BE40BEE
:100E3000F50B661F771F881F991F1A9469F7609535
:100E40007095809590959B01AC01BD01CF010895EF
:100E50000E945407B7FF0895821B930B08950E94C8
:100E60005407A59F900DB49F900DA49F800D911DD8
:100E700011240895AA1BBB1B51E107C0AA1FBB1F69
:100E8000A617B70710F0A61BB70B881F991F5A9516
:100E9000A9F780959095BC01CD010895EE0FFF1F35
:100EA0000590F491E02D0994A29FB001B39FC00179
:100EB000A39F700D811D1124911DB29F700D811D86
:100EC0001124911D089581E090E0F8940C94680736
:040ED000F894FFCFC4
:100ED4000000000029052905290505050105FE0472
:100EE40000000000BB047704750405050105E0015A
:020EF4002202D8
:00000001FF
