:100000000C9461000C9473000C9473000C947300B6
:100010000C9473000C9473000C9473000C94730094
:100020000C9473000C9473000C9473000C94730084
:100030000C9473000C9473000C9473000C94730074
:100040000C9440010C9473000C9473000C94730096
:100050000C9473000C9473000C9473000C94730054
:100060000C9473000C947300000000002300260021
:10007000290000000000240027002A0000000000E2
:10008000250028002B0004040404040404040202D4
:100090000202020203030303030301020408102007
:1000A0004080010204081020010204081020000012
:1000B0000008000201000003040700000000000027
:1000C000000011241FBECFEFD8E0DEBFCDBF21E07E
:1000D000A0E0B1E001C01D92AB30B207E1F70E9491
:1000E0008A010C9475020C940000833081F028F48E
:1000F000813099F08230A1F008958730A9F08830DE
:10010000B9F08430D1F4809180008F7D03C080915C
:1001100080008F7780938000089584B58F7702C028
:1001200084B58F7D84BD08958091B0008F7703C022
:100130008091B0008F7D8093B00008951F93CF937E
:10014000DF93282F30E0F901E255FF4F8491F90148
:10015000E656FF4FD491F901EA57FF4FC491CC23E3
:10016000C1F0162F81110E947500EC2FF0E0EE0F08
:10017000FF1FE458FF4FA591B4919FB7F894111158
:1001800004C08C91D095D82302C0EC91DE2BDC9377
:100190009FBFDF91CF911F910895CF93DF9390E0A0
:1001A000FC01E656FF4F2491FC01EA57FF4F849172
:1001B000882361F190E0880F991FFC01EE58FF4FF2
:1001C000C591D491FC01E458FF4FA591B491611100
:1001D00009C09FB7F8948881209582238883EC9189
:1001E0002E230BC0623061F49FB7F8948881322FC0
:1001F000309583238883EC912E2B2C939FBF06C0D0
:100200008FB7F894E8812E2B28838FBFDF91CF9191
:1002100008953FB7F8948091070190910801A0914B
:100220000901B0910A0126B5A89B05C02F3F19F01E
:100230000196A11DB11D3FBFBA2FA92F982F882766
:10024000820F911DA11DB11DBC01CD0142E0660FC1
:10025000771F881F991F4A95D1F70895CF93DF9391
:10026000D62FC42F682F84E00E949E006D2F83E05C
:100270000E949E006C2F82E0DF91CF910C949E0033
:100280001F920F920FB60F9211242F933F938F93CB
:100290009F93AF93BF938091030190910401A0912C
:1002A0000501B09106013091020123E0230F2D37A3
:1002B00020F40196A11DB11D05C026E8230F02966A
:1002C000A11DB11D209302018093030190930401AD
:1002D000A0930501B0930601809107019091080158
:1002E000A0910901B0910A010196A11DB11D809351
:1002F000070190930801A0930901B0930A01BF91EF
:10030000AF919F918F913F912F910F900FBE0F90C2
:100310001F901895789484B5826084BD84B58160FF
:1003200084BD85B5826085BD85B5816085BD8091C0
:100330006E00816080936E00109281008091810038
:100340008260809381008091810081608093810030
:10035000809180008160809380008091B1008460F2
:100360008093B1008091B00081608093B000809153
:100370007A00846080937A0080917A008260809312
:100380007A0080917A00816080937A0080917A006F
:10039000806880937A001092C10061E084E00E943E
:1003A000CD0061E083E00E94CD0061E082E00E9428
:1003B000CD0062E085E00E94CD002FE9222E20E0F2
:1003C000322E3BE8832E30E0932EC0E0D0E003E0F5
:1003D00010E042E0A42EB12CE3EBF0E08491F101B7
:1003E000F490F401E490EE2009F479C081110E94A8
:1003F0007500EE2DF0E0EE0FFF1FE859FF4FA591BD
:10040000B4918C91F82209F46AC080910001909116
:100410000101009779F440E050E060E070E081E095
:1004200090E00E942E0181E090E090930101809382
:1004300000012EC08130910569F440E050E061E098
:1004400070E081E090E00E942E01B0920101A09244
:1004500000011EC08230910569F441E050E060E087
:1004600070E080E090E00E942E0110930101009363
:1004700000010EC0039761F440E050E061E070E0DD
:1004800080E090E00E942E01109201011092000184
:100490000E9409012B013C0188EEC82E83E0D82E72
:1004A000E12CF12C0E940901DC01CB018419950992
:1004B000A609B709883E9340A105B10598F3F1E07C
:1004C000CF1AD108E108F10828EE420E23E0521EAF
:1004D000611C711CC114D104E104F10419F72097C7
:0E04E00009F47ACF0E94000077CFF894FFCF86
:00000001FF
